{
  "transactions": [
    {
      "hash": "0xe67a88c6130be05c035fe08dfbe63ca178c22b3360d2b7a25119f882d06dffd9",
      "transactionType": "CALL",
      "contractName": null,
      "contractAddress": "0x2e61d8b5fce5616980e039906cc1f212f44f5168",
      "function": "execute((address,uint256,bytes)[],bytes)",
      "arguments": [
        "[(0x93998AB1fC2D04fB7A1430073FD95434067F57e1, 1000000000000000, 0x), (0x93998AB1fC2D04fB7A1430073FD95434067F57e1, 500000000000000, 0x)]",
        "0xba6d27b6817e8676ffd415f06169139e7f5eb5fe2c7576c63536c556e8edf2c50799a2740bf617bf6305f80ebb23727ad9179d2702b54fdadf137ad66451018a1b"
      ],
      "transaction": {
        "from": "0x93998ab1fc2d04fb7a1430073fd95434067f57e1",
        "to": "0x2e61d8b5fce5616980e039906cc1f212f44f5168",
        "gas": "0x10c6f",
        "value": "0x0",
        "input": "0x6171d1c9000000000000000000000000000000000000000000000000000000000000004000000000000000000000000000000000000000000000000000000000000001a00000000000000000000000000000000000000000000000000000000000000002000000000000000000000000000000000000000000000000000000000000004000000000000000000000000000000000000000000000000000000000000000c000000000000000000000000093998ab1fc2d04fb7a1430073fd95434067f57e100000000000000000000000000000000000000000000000000038d7ea4c680000000000000000000000000000000000000000000000000000000000000000060000000000000000000000000000000000000000000000000000000000000000000000000000000000000000093998ab1fc2d04fb7a1430073fd95434067f57e10000000000000000000000000000000000000000000000000001c6bf52634000000000000000000000000000000000000000000000000000000000000000006000000000000000000000000000000000000000000000000000000000000000000000000000000000000000000000000000000000000000000000000000000041ba6d27b6817e8676ffd415f06169139e7f5eb5fe2c7576c63536c556e8edf2c50799a2740bf617bf6305f80ebb23727ad9179d2702b54fdadf137ad66451018a1b00000000000000000000000000000000000000000000000000000000000000",
        "nonce": "0x0",
        "chainId": "0xaa36a7",
        "authorizationList": [
          {
            "chainId": "0xaa36a7",
            "address": "0x6990ace3e222ac4901b713958716bda39d709a6c",
            "nonce": "0x3",
            "yParity": "0x0",
            "r": "0xf148c09331a5e2e199031a5032daa0615f05648622f038bd152d6ccf46fd4ac1",
            "s": "0x388cf0b8dcec6fa48651b3057a42ac6760e06a384d77d56d348f32f45f39b375"
          }
        ]
      },
      "additionalContracts": [],
      "isFixedGasLimit": false
    }
  ],
  "receipts": [
    {
      "status": "0x1",
      "cumulativeGasUsed": "0x13146ce",
      "logs": [],
      "logsBloom": "0x00000000000000000000000000000000000000000000000000000000000000000000000000000000000000000000000000000000000000000000000000000000000000000000000000000000000000000000000000000000000000000000000000000000000000000000000000000000000000000000000000000000000000000000000000000000000000000000000000000000000000000000000000000000000000000000000000000000000000000000000000000000000000000000000000000000000000000000000000000000000000000000000000000000000000000000000000000000000000000000000000000000000000000000000000000000",
      "type": "0x4",
      "transactionHash": "0xe67a88c6130be05c035fe08dfbe63ca178c22b3360d2b7a25119f882d06dffd9",
      "transactionIndex": "0x15a",
      "blockHash": "0x15f6c3fcf5349c5fa2cdad14a0a70ab15763410899efab025b949b89ac2d4d33",
      "blockNumber": "0x84a469",
      "gasUsed": "0xc258",
      "effectiveGasPrice": "0x182c249",
      "from": "0x93998ab1fc2d04fb7a1430073fd95434067f57e1",
      "to": "0x2e61d8b5fce5616980e039906cc1f212f44f5168",
      "contractAddress": null
    }
  ],
  "libraries": [],
  "pending": [],
  "returns": {},
  "timestamp": 1751660965,
  "chain": 11155111,
  "commit": "2e97111"
}